:100000000C94B1000C94CE000C94CE000C94CE0055
:100010000C94CE000C94CE000C94CE000C94CE0028
:100020000C94CE000C94CE000C9444020C94CE00A0
:100030000C94CE000C94CE000C94CE000C94CE0008
:100040000C94CE000C94CE000C94CE000C94CE00F8
:100050000C94CE000C94CE000C94CE000C94CE00E8
:100060000C94CE000C94CE0000407A10F35A00A0FD
:10007000724E18090010A5D4E80000E87648170071
:1000800000E40B54020000CA9A3B000000E1F505B1
:10009000000080969800000040420F000000A086FB
:1000A00001000000102700000000E803000000002D
:1000B0006400000000000A000000000001000000D1
:1000C00000002C76D888DC674F0823DFC1DFAE59EB
:1000D000E1B1B796E5E3E453C63AE651997696E87E
:1000E000E6C28426EB898C9B62ED407C6FFCEFBC02
:1000F0009C9F40F2BAA56FA5F490055A2AF75C932D
:100100006B6CF9676DC11BFCE0E40D47FEF520E662
:10011000B500D0ED902E0300943577050080841E45
:10012000080000204E0A000000C80C333333330FA0
:10013000986E12831141EF8D2114893BE65516CF3D
:10014000FEE6DB18D1844B381BF77C1D901DA4BB49
:10015000E424203284725E228100C9F124ECA1E5FE
:100160003D2711241FBECFEFD8E0DEBFCDBF11E089
:10017000A0E0B1E0E0E9FFE002C005900D92AA30F6
:10018000B107D9F721E0AAE0B1E001C01D92A63184
:10019000B207E1F70E94D0000C94C6070C9400004F
:1001A00000D000D000D0CDB7DEB7F8940E94A101F6
:1001B000259A2D9A0E94270162E370E084E690E080
:1001C0000E94C90244E650E064E670E082E090E0FC
:1001D0000E940603789490E080E00E943E018D83A7
:1001E0009E838D819E81092E000CAA0BBB0B8983F7
:1001F0009A83AB83BC83BC01CD010E94320400E032
:1002000011E020E04AE069837A838B839C836981D3
:100210007A818B819C810E942B05C8010E94BB01C1
:10022000AD81BE81A139B14054F02D9A44E650E031
:1002300064E670E081E090E00E946203CCCF2D98EC
:1002400044E650E064E670E082E090E0F5CFECE751
:10025000F0E080818F7D80838081806480838081D5
:100260008F778083EAE7F0E08081816080838081FE
:1002700082608083808184608083089520917C00E7
:10028000207F20937C0090917C00982B90937C00A1
:1002900080917A00806880937A0085E38A95F1F7EF
:1002A000000080917A00806480937A0080917A00C7
:1002B00084FFFCCF80917A00806880937A008091DF
:1002C0007A008F7780937A008091780090917900FE
:1002D0000895CF93DF9300D000D0CDB7DEB77A83F7
:1002E000698323EA24BD25E025BD9C01990F440BB9
:1002F000550B69E07DE380E090E00E949E03215071
:10030000310941095109A981BA810E94BD0324E63E
:1003100030E040E050E00E949E0327BD28BD0F90D2
:100320000F900F900F90DF91CF91089516BC559AC2
:10033000569A089555985698089555980895569840
:1003400008951092C50087E68093C40088E18093E9
:10035000C10086E08093C20008959091C00095FF8F
:10036000FCCF8093C60008958091C00087FFFCCF2A
:100370008091C6000895CF93DF93EC018991882383
:1003800019F00E94AD01FACFDF91CF910895569AEE
:1003900083EC84BD85B5826085BD8BEE87BD2098DA
:1003A00082EC80938100EFE6F0E0808180628083C0
:1003B0000895CF93DF9300D000D0CDB7DEB7809102
:1003C0000A0190910B01A0910C01B0910D0189835C
:1003D0009A83AB83BC83BC01CD010E94300420E032
:1003E00030E040E057E469837A838B839C836981A2
:1003F0007A818B819C810E94960420E030E040E865
:1004000057E369837A838B839C8369817A818B81AB
:100410009C810E94960469837A838B839C83698183
:100420007A818B819C810E9401040E94300426E91C
:1004300033E44BE05DE369837A838B839C8369813A
:100440007A818B819C810E94960420E030E040E01C
:100450005FE369837A838B839C8369817A818B8153
:100460009C810E94960469837A838B839C83698133
:100470007A818B819C810E9401040F900F900F90D4
:100480000F90DF91CF9108951F921FB61F921124F4
:100490004F935F936F937F938F939F93AF93BF938C
:1004A0008091810086FF66C08091860090918700D0
:1004B000B0E0A0E08093120190931301A093140187
:1004C000B09315018091120190911301A091140134
:1004D000B0911501892B8A2B8B2BC1F180910E01D4
:1004E00090910F01A0911001B0911101892B8A2BDD
:1004F0008B2B61F180910E0190910F01A091100161
:10050000B0911101409112015091130160911401B9
:1005100070911501841B950BA60BB70B80930A01F4
:1005200090930B01A0930C01B0930D011092120156
:1005300010921301109214011092150110920E01E5
:1005400010920F0110921001109211018091810000
:1005500090E489278093810080E286BBBF91AF91B0
:100560009F918F917F916F915F914F911F901FBECF
:100570001F9018958091860090918700B0E0A0E0D0
:1005800080930E0190930F01A0931001B09311017D
:1005900099CFCF93DF9300D000D0CDB7DEB77A8369
:1005A000698322EA2093800028E120938100219A28
:1005B000229A9C01990F440B550B69E07DE380E082
:1005C00090E00E949E03C901019790938700809359
:1005D00086002150310941095109A981BA810E943F
:1005E000BD0324E630E040E050E00E949E033093DB
:1005F00089002093880030938B0020938A000F900D
:100600000F900F900F90DF91CF910895CF93DF93CC
:1006100000D000D00F92CDB7DEB79B014D83598338
:1006200081309105B9F4209181002E7F20938100C3
:10063000209181002D7F20938100209181002B7FCC
:10064000209381000F900F900F900F900F90DF91EB
:10065000CF9108958230910591F410928500109207
:1006600084002091810021602093810020918100ED
:100670002D7F20938100209181002460E1CF032E03
:10068000000C440B550B69E07DE380E090E00E9494
:100690009E032150310941095109AD81B9810E9460
:1006A000BD0324E630E040E050E00E949E0330931A
:1006B00089002093880030938B0020938A0083E088
:1006C00090E0C0CFCF93DF9300D000D00F92CDB792
:1006D000DEB76D8379839A018130910549F42198C1
:1006E0000F900F900F900F900F90DF91CF91089582
:1006F0008230910511F4219AF3CF032E000C440BA4
:10070000550B69E07DE380E090E00E949E0321505C
:10071000310941095109AD81B9810E94BD0324E627
:1007200030E040E050E00E949E0330938900209327
:10073000880083E090E0D4CF0C946203052E97FBF1
:100740001EF400940E94B50357FD07D00E94C50314
:1007500007FC03D04EF40C94B503509540953095AA
:1007600021953F4F4F4F5F4F08959095809570951D
:1007700061957F4F8F4F9F4F0895B7FF0C94E7030C
:100780000E94E703821B930B0895A1E21A2EAA1B75
:10079000BB1BFD010DC0AA1FBB1FEE1FFF1FA21731
:1007A000B307E407F50720F0A21BB30BE40BF50B2E
:1007B000661F771F881F991F1A9469F760957095B7
:1007C000809590959B01AC01BD01CF0108950E94D9
:1007D000F203A59F900DB49F900DA49F800D911DD5
:1007E00011240895A29FB001B39FC001A39F700D73
:1007F000811D1124911DB29F700D811D1124911D29
:1008000008950E94750488F09F5798F0B92F992792
:10081000B751B0F0E1F0660F771F881F991F1AF0EB
:10082000BA95C9F714C0B13091F00E948F04B1E0BD
:1008300008950C948F04672F782F8827B85F39F0BC
:10084000B93FCCF3869577956795B395D9F73EF484
:1008500090958095709561957F4F8F4F9F4F08952C
:10086000E89409C097FB3EF490958095709561954A
:100870007F4F8F4F9F4F9923A9F0F92F96E9BB2700
:100880009395F695879577956795B795F111F8CF7C
:10089000FAF4BB0F11F460FF1BC06F5F7F4F8F4FE7
:1008A0009F4F16C0882311F096E911C0772321F0DD
:1008B0009EE8872F762F05C0662371F096E8862F75
:1008C00070E060E02AF09A95660F771F881FDAF7CC
:1008D000880F9695879597F9089557FD9058440F7E
:1008E000551F59F05F3F71F04795880F97FB991F8F
:1008F00061F09F3F79F0879508951216130614064C
:10090000551FF2CF4695F1DF08C0161617061806D8
:10091000991FF1CF86957105610508940895E894B3
:10092000BB2766277727CB0197F908950E94A90472
:100930000C941A050E940C0538F00E94130520F053
:10094000952311F00C9403050C94090511240C94C3
:1009500090040E946D0470F3959FC1F3950F50E0D1
:10096000551F629FF001729FBB27F00DB11D639F61
:10097000AA27F00DB11DAA1F649F6627B00DA11D07
:10098000661F829F2227B00DA11D621F739FB00DAD
:10099000A11D621F839FA00D611D221F749F33271D
:1009A000A00D611D231F849F600D211D822F762FB6
:1009B0006A2F11249F5750409AF0F1F088234AF093
:1009C000EE0FFF1FBB1F661F771F881F91505040FF
:1009D000A9F79E3F510580F00C9403050C949004F8
:1009E0005F3FE4F3983ED4F3869577956795B79586
:1009F000F795E7959F5FC1F7FE2B880F911D9695A0
:100A0000879597F9089597F99F6780E870E060E00F
:100A100008959FEF80EC089500240A941616170697
:100A200018060906089500240A94121613061406DF
:100A300005060895092E0394000C11F4882352F042
:100A4000BB0F40F4BF2B11F460FF04C06F5F7F4FFA
:100A50008F4F9F4F0895EF920F931F93CF93DF9384
:100A600000D000D00F92CDB7DEB7322F0D8354E007
:100A700047FD54E1242F27FD2195E52E032F4D81BD
:100A8000512F69837A838B839C8369817A818B81DF
:100A90009C810E9458058D81912F0F900F900F908F
:100AA0000F900F90DF91CF911F910F91EF900895CC
:100AB000ADE0B0E0EEE5F5E00C948F076A01F22EB0
:100AC000402E2E2C102F2BE3201708F41BE31F5F62
:100AD000012F27E0AE014F5F5F4F6A877B878C87CE
:100AE0009D876A857B858C859D850E94B0064C011B
:100AF0005980852D89700DE2813039F00BE221FC9F
:100B000004C0022D017020FC00E2422D4071342E01
:100B1000952D987053FE41C083E0011184E08F153C
:100B200098F5F81A31100BC0EF2CF12CA70160E2F8
:100B300070E0C6010E948807CE0CDF1CF12C002358
:100B400019F0F60101936F0186010D5F1F4F22FE20
:100B50001DC08EE4D6018C9391E411969C9311975D
:100B600012968C93EF2CF12CA70160E270E0C80183
:100B70000E948807E00EF11ED7011C928EEF9FEFB6
:100B80002D96E2E10C94AB07F12CCCCF8EE6F6016A
:100B9000808391E691838283E5CF52FE3EC083E05D
:100BA000011184E08F1510F49F2D981B31100BC09C
:100BB000E92EF12CA70160E270E0C6010E948807CF
:100BC000CE0CDF1C90E0002319F0F60101936F01B9
:100BD0007601B3E0EB0EF11C22FE14C089E4F601AD
:100BE00080838EE4818386E48283092F10E0A8014C
:100BF00060E270E0C7010E948807F701E00FF11F73
:100C00001082BCCF89E6D6018C938EE611968C9328
:100C1000119786E612968C93E8CF540197FE02C096
:100C2000B12CA12C81E090E0011102C090E080E0A5
:100C300095012F5F3F4F820F931F642C712C9301FE
:100C40002F5F3F4F411002C030E020E0820F931F22
:100C5000F816190609F00CF45FC0F81A31107DC0BF
:100C600023FC0BC0EF2CF12CA70160E270E0C60161
:100C70000E948807CE0CDF1CF12C002329F0F6011E
:100C800001936F0131100BC0EF2CF12CA70160E331
:100C900070E0C6010E948807CE0CDF1CF12C180DF5
:100CA0009A81252D207154FE03C0913309F411500F
:100CB0001116A4F5193008F018E0F401EA19FB093F
:100CC00041E050E04C0F5D1FE40FF51FA401411BF4
:100CD00051097194619471083EE28A149B0404F1F5
:100CE0004A155B05ECF48181B1E0AB1AB1088601CD
:100CF0000F5F1F4FA614B704ACF0D6018C93BFEF63
:100D0000AB16BB0631F486010E5F1F4FD60111965C
:100D10003C9331966801E1CFF12CA0CF11E0CDCF0B
:100D200080E3E2CF8A149B0439F4963320F49533A0
:100D300019F4211101C081E3F6018083EF2CF12C1D
:100D4000A70160E270E0C8010E9488070E0D1F1D18
:100D5000D8011C9290E080E013CF011190CF9FCF7B
:100D6000283008F027E03327DA01990F311D87FD7D
:100D7000916000966105710539F432602E5F3D93F4
:100D800030E32A95E1F708959F3F30F080387105F0
:100D9000610509F03C5F3C5F3D93913008F080684D
:100DA000911DDF93CF931F930F93FF92EF92192F13
:100DB000987F9695E92F96959695E90FFF27EE5324
:100DC000FF4F99273327EE24FF24A701E701059061
:100DD0000894079428F4360FE71EF81E491F511D8A
:100DE000660F771F881F991F0694A1F70590079437
:100DF00028F4E70EF81E491F561FC11D770F881FE4
:100E0000991F661F0694A1F70590079428F4F80E21
:100E1000491F561FC71FD11D880F991F661F771FB7
:100E20000694A1F70590079420F4490F561FC71F99
:100E3000D81F990F661F771F881F0694A9F7849102
:100E40001095177041F0D695C79557954795F7942B
:100E5000E7941A95C1F7E8E6F0E0689415901591CB
:100E600035916591959105907FE27395E118F10AAE
:100E7000430B560BC90BD009C0F7E10CF11E431F01
:100E8000561FC91FD01D7EF4703311F48A95E6CF2A
:100E9000E894015030F0080F0AF40027021708F414
:100EA000202F2395022F7A3328F079E37D932A951A
:100EB000E9F710C07D932A9589F606949795679572
:100EC000379517951794E118F10A430B560BC90B88
:100ED000D00998F023957E9173957A3308F070E3EA
:100EE0007C932013B8F77E9170617D9330F08395E9
:100EF00071E37D9370E32A95E1F71124EF90FF9061
:100F00000F911F91CF91DF91992787FD90950895BB
:100F1000DC0101C06D9341505040E0F708952F92DD
:100F20003F924F925F926F927F928F929F92AF9279
:100F3000BF92CF92DF92EF92FF920F931F93CF93C6
:100F4000DF93CDB7DEB7CA1BDB0B0FB6F894DEBF5D
:100F50000FBECDBF09942A88398848885F846E8483
:100F60007D848C849B84AA84B984C884DF80EE80CD
:100F7000FD800C811B81AA81B981CE0FD11D0FB6D6
:100F8000F894DEBF0FBECDBFED010895F894FFCFFA
:0A0F9000484F6C61000000000000F3
:00000001FF
